{
  "address": "0xAE37f1FfAF4D197607370bbc6C9BC56F3BB8CF0a",
  "abi": [
    {
      "inputs": [
        {
          "internalType": "uint256",
          "name": "minimumValue",
          "type": "uint256"
        },
        {
          "internalType": "uint256",
          "name": "target",
          "type": "uint256"
        },
        {
          "internalType": "uint256",
          "name": "lockTime",
          "type": "uint256"
        },
        {
          "internalType": "address",
          "name": "dataFeedAddr",
          "type": "address"
        }
      ],
      "stateMutability": "nonpayable",
      "type": "constructor"
    },
    {
      "anonymous": false,
      "inputs": [
        {
          "indexed": false,
          "internalType": "uint256",
          "name": "",
          "type": "uint256"
        }
      ],
      "name": "FundWithdrawByOwner",
      "type": "event"
    },
    {
      "anonymous": false,
      "inputs": [
        {
          "indexed": false,
          "internalType": "address",
          "name": "",
          "type": "address"
        },
        {
          "indexed": false,
          "internalType": "uint256",
          "name": "",
          "type": "uint256"
        }
      ],
      "name": "RefundByFunder",
      "type": "event"
    },
    {
      "inputs": [],
      "name": "dataFeed",
      "outputs": [
        {
          "internalType": "contract AggregatorV3Interface",
          "name": "",
          "type": "address"
        }
      ],
      "stateMutability": "view",
      "type": "function"
    },
    {
      "inputs": [],
      "name": "fund",
      "outputs": [],
      "stateMutability": "payable",
      "type": "function"
    },
    {
      "inputs": [
        {
          "internalType": "address",
          "name": "",
          "type": "address"
        }
      ],
      "name": "fundersToAmount",
      "outputs": [
        {
          "internalType": "uint256",
          "name": "",
          "type": "uint256"
        }
      ],
      "stateMutability": "view",
      "type": "function"
    },
    {
      "inputs": [],
      "name": "getFund",
      "outputs": [],
      "stateMutability": "nonpayable",
      "type": "function"
    },
    {
      "inputs": [],
      "name": "owner",
      "outputs": [
        {
          "internalType": "address",
          "name": "",
          "type": "address"
        }
      ],
      "stateMutability": "view",
      "type": "function"
    },
    {
      "inputs": [],
      "name": "refund",
      "outputs": [],
      "stateMutability": "nonpayable",
      "type": "function"
    }
  ],
  "transactionHash": "0x811246639876bfee9f55911cb099ee267d0eaed534a20acc6caa318a664f3204",
  "args": [
    "100000000000000000000",
    "1000000000000000000000",
    180,
    "0x694AA1769357215DE4FAC081bf1f309aDC325306"
  ],
  "numDeployments": 3,
  "solcInputHash": "0e666af1114189aba06162433b7cd8d3",
  "bytecode": "0x61010060405234801561001157600080fd5b506040516112e53803806112e583398181016040528101906100339190610177565b83608081815250508260a081815250508160c081815250504260e0818152505080600160006101000a81548173ffffffffffffffffffffffffffffffffffffffff021916908373ffffffffffffffffffffffffffffffffffffffff16021790555033600260006101000a81548173ffffffffffffffffffffffffffffffffffffffff021916908373ffffffffffffffffffffffffffffffffffffffff160217905550505050506101de565b600080fd5b6000819050919050565b6100f6816100e3565b811461010157600080fd5b50565b600081519050610113816100ed565b92915050565b600073ffffffffffffffffffffffffffffffffffffffff82169050919050565b600061014482610119565b9050919050565b61015481610139565b811461015f57600080fd5b50565b6000815190506101718161014b565b92915050565b60008060008060808587031215610191576101906100de565b5b600061019f87828801610104565b94505060206101b087828801610104565b93505060406101c187828801610104565b92505060606101d287828801610162565b91505092959194509250565b60805160a05160c05160e0516110ab61023a600039600081816101480152818161045801526107770152600081816101270152818161043701526107560152600081816101b50152610555015260006106eb01526110ab6000f3fe6080604052600436106100555760003560e01c8063590e1ae31461005a5780638da5cb5b146100715780638edd6eb61461009c5780639e42ff90146100b35780639f883a05146100de578063b60d42881461011b575b600080fd5b34801561006657600080fd5b5061006f610125565b005b34801561007d57600080fd5b5061008661040f565b6040516100939190610924565b60405180910390f35b3480156100a857600080fd5b506100b1610435565b005b3480156100bf57600080fd5b506100c86106ab565b6040516100d5919061099e565b60405180910390f35b3480156100ea57600080fd5b50610105600480360381019061010091906109ea565b6106d1565b6040516101129190610a30565b60405180910390f35b6101236106e9565b005b7f00000000000000000000000000000000000000000000000000000000000000007f00000000000000000000000000000000000000000000000000000000000000006101719190610a7a565b4210156101b3576040517f08c379a00000000000000000000000000000000000000000000000000000000081526004016101aa90610b0b565b60405180910390fd5b7f00000000000000000000000000000000000000000000000000000000000000006101dd47610826565b1061021d576040517f08c379a000000000000000000000000000000000000000000000000000000000815260040161021490610b77565b60405180910390fd5b60008060003373ffffffffffffffffffffffffffffffffffffffff1673ffffffffffffffffffffffffffffffffffffffff168152602001908152602001600020540361029e576040517f08c379a000000000000000000000000000000000000000000000000000000000815260040161029590610be3565b60405180910390fd5b6000806000803373ffffffffffffffffffffffffffffffffffffffff1673ffffffffffffffffffffffffffffffffffffffff1681526020019081526020016000205490503373ffffffffffffffffffffffffffffffffffffffff168160405161030690610c34565b60006040518083038185875af1925050503d8060008114610343576040519150601f19603f3d011682016040523d82523d6000602084013e610348565b606091505b5050809250508161038e576040517f08c379a000000000000000000000000000000000000000000000000000000000815260040161038590610c95565b60405180910390fd5b60008060003373ffffffffffffffffffffffffffffffffffffffff1673ffffffffffffffffffffffffffffffffffffffff168152602001908152602001600020819055507fc69be1ee5ac2aec580fb0927d8d940555d6f0a7bd11eed94b5b597056113da5f3382604051610403929190610cb5565b60405180910390a15050565b600260009054906101000a900473ffffffffffffffffffffffffffffffffffffffff1681565b7f00000000000000000000000000000000000000000000000000000000000000007f00000000000000000000000000000000000000000000000000000000000000006104819190610a7a565b4210156104c3576040517f08c379a00000000000000000000000000000000000000000000000000000000081526004016104ba90610b0b565b60405180910390fd5b600260009054906101000a900473ffffffffffffffffffffffffffffffffffffffff1673ffffffffffffffffffffffffffffffffffffffff163373ffffffffffffffffffffffffffffffffffffffff1614610553576040517f08c379a000000000000000000000000000000000000000000000000000000000815260040161054a90610d50565b60405180910390fd5b7f000000000000000000000000000000000000000000000000000000000000000061057d47610826565b10156105be576040517f08c379a00000000000000000000000000000000000000000000000000000000081526004016105b590610dbc565b60405180910390fd5b6000804790503373ffffffffffffffffffffffffffffffffffffffff16816040516105e890610c34565b60006040518083038185875af1925050503d8060008114610625576040519150601f19603f3d011682016040523d82523d6000602084013e61062a565b606091505b50508092505081610670576040517f08c379a000000000000000000000000000000000000000000000000000000000815260040161066790610c95565b60405180910390fd5b7f2413e9342f4545ed6b87ad890930d6affc4c1914b742a3fad66c49d6d507c73b8160405161069f9190610a30565b60405180910390a15050565b600160009054906101000a900473ffffffffffffffffffffffffffffffffffffffff1681565b60006020528060005260406000206000915090505481565b7f000000000000000000000000000000000000000000000000000000000000000061071334610826565b1015610754576040517f08c379a000000000000000000000000000000000000000000000000000000000815260040161074b90610e28565b60405180910390fd5b7f00000000000000000000000000000000000000000000000000000000000000007f00000000000000000000000000000000000000000000000000000000000000006107a09190610a7a565b42106107e1576040517f08c379a00000000000000000000000000000000000000000000000000000000081526004016107d890610e94565b60405180910390fd5b346000803373ffffffffffffffffffffffffffffffffffffffff1673ffffffffffffffffffffffffffffffffffffffff16815260200190815260200160002081905550565b600080600160009054906101000a900473ffffffffffffffffffffffffffffffffffffffff1673ffffffffffffffffffffffffffffffffffffffff1663feaf968c6040518163ffffffff1660e01b815260040160a060405180830381865afa158015610896573d6000803e3d6000fd5b505050506040513d601f19601f820116820180604052508101906108ba9190610f58565b5050509150506305f5e10083826108d19190610fd3565b6108db9190611044565b915050919050565b600073ffffffffffffffffffffffffffffffffffffffff82169050919050565b600061090e826108e3565b9050919050565b61091e81610903565b82525050565b60006020820190506109396000830184610915565b92915050565b6000819050919050565b600061096461095f61095a846108e3565b61093f565b6108e3565b9050919050565b600061097682610949565b9050919050565b60006109888261096b565b9050919050565b6109988161097d565b82525050565b60006020820190506109b3600083018461098f565b92915050565b600080fd5b6109c781610903565b81146109d257600080fd5b50565b6000813590506109e4816109be565b92915050565b600060208284031215610a00576109ff6109b9565b5b6000610a0e848285016109d5565b91505092915050565b6000819050919050565b610a2a81610a17565b82525050565b6000602082019050610a456000830184610a21565b92915050565b7f4e487b7100000000000000000000000000000000000000000000000000000000600052601160045260246000fd5b6000610a8582610a17565b9150610a9083610a17565b9250828201905080821115610aa857610aa7610a4b565b5b92915050565b600082825260208201905092915050565b7f77696e646f77206973206e6f7420636c6f736564000000000000000000000000600082015250565b6000610af5601483610aae565b9150610b0082610abf565b602082019050919050565b60006020820190508181036000830152610b2481610ae8565b9050919050565b7f5461726765742069732072656163686564000000000000000000000000000000600082015250565b6000610b61601183610aae565b9150610b6c82610b2b565b602082019050919050565b60006020820190508181036000830152610b9081610b54565b9050919050565b7f7468657265206973206e6f2066756e6420666f7220796f750000000000000000600082015250565b6000610bcd601883610aae565b9150610bd882610b97565b602082019050919050565b60006020820190508181036000830152610bfc81610bc0565b9050919050565b600081905092915050565b50565b6000610c1e600083610c03565b9150610c2982610c0e565b600082019050919050565b6000610c3f82610c11565b9150819050919050565b7f7472616e73666572207478206661696c65640000000000000000000000000000600082015250565b6000610c7f601283610aae565b9150610c8a82610c49565b602082019050919050565b60006020820190508181036000830152610cae81610c72565b9050919050565b6000604082019050610cca6000830185610915565b610cd76020830184610a21565b9392505050565b7f746869732066756e6374696f6e2063616e206f6e6c792062652063616c6c656460008201527f206279206f776e65720000000000000000000000000000000000000000000000602082015250565b6000610d3a602983610aae565b9150610d4582610cde565b604082019050919050565b60006020820190508181036000830152610d6981610d2d565b9050919050565b7f546172676574206973206e6f7420726561636865640000000000000000000000600082015250565b6000610da6601583610aae565b9150610db182610d70565b602082019050919050565b60006020820190508181036000830152610dd581610d99565b9050919050565b7f53656e64206d6f72652045544800000000000000000000000000000000000000600082015250565b6000610e12600d83610aae565b9150610e1d82610ddc565b602082019050919050565b60006020820190508181036000830152610e4181610e05565b9050919050565b7f77696e646f7720697320636c6f73656400000000000000000000000000000000600082015250565b6000610e7e601083610aae565b9150610e8982610e48565b602082019050919050565b60006020820190508181036000830152610ead81610e71565b9050919050565b600069ffffffffffffffffffff82169050919050565b610ed381610eb4565b8114610ede57600080fd5b50565b600081519050610ef081610eca565b92915050565b6000819050919050565b610f0981610ef6565b8114610f1457600080fd5b50565b600081519050610f2681610f00565b92915050565b610f3581610a17565b8114610f4057600080fd5b50565b600081519050610f5281610f2c565b92915050565b600080600080600060a08688031215610f7457610f736109b9565b5b6000610f8288828901610ee1565b9550506020610f9388828901610f17565b9450506040610fa488828901610f43565b9350506060610fb588828901610f43565b9250506080610fc688828901610ee1565b9150509295509295909350565b6000610fde82610a17565b9150610fe983610a17565b9250828202610ff781610a17565b9150828204841483151761100e5761100d610a4b565b5b5092915050565b7f4e487b7100000000000000000000000000000000000000000000000000000000600052601260045260246000fd5b600061104f82610a17565b915061105a83610a17565b92508261106a57611069611015565b5b82820490509291505056fea2646970667358221220e68ab475a1a1708dd8dda7754dd95c31da6198cca2c225e27246b7e51214091464736f6c634300081c0033",
  "devdoc": {
    "kind": "dev",
    "methods": {},
    "version": 1
  },
  "userdoc": {
    "kind": "user",
    "methods": {},
    "version": 1
  },
  "storageLayout": {
    "storage": [
      {
        "astId": 53,
        "contract": "contracts/FundMe.sol:FundMe",
        "label": "fundersToAmount",
        "offset": 0,
        "slot": "0",
        "type": "t_mapping(t_address,t_uint256)"
      },
      {
        "astId": 64,
        "contract": "contracts/FundMe.sol:FundMe",
        "label": "dataFeed",
        "offset": 0,
        "slot": "1",
        "type": "t_contract(AggregatorV3Interface)45"
      },
      {
        "astId": 66,
        "contract": "contracts/FundMe.sol:FundMe",
        "label": "owner",
        "offset": 0,
        "slot": "2",
        "type": "t_address"
      }
    ],
    "types": {
      "t_address": {
        "encoding": "inplace",
        "label": "address",
        "numberOfBytes": "20"
      },
      "t_contract(AggregatorV3Interface)45": {
        "encoding": "inplace",
        "label": "contract AggregatorV3Interface",
        "numberOfBytes": "20"
      },
      "t_mapping(t_address,t_uint256)": {
        "encoding": "mapping",
        "key": "t_address",
        "label": "mapping(address => uint256)",
        "numberOfBytes": "32",
        "value": "t_uint256"
      },
      "t_uint256": {
        "encoding": "inplace",
        "label": "uint256",
        "numberOfBytes": "32"
      }
    }
  }
}